S018000030315F554152545F6F6E655F636861722E7372656372
S11300000C9434000C943E000C943E000C943E007E
S11300100C943E000C943E000C943E000C943E0064
S11300200C943E000C943E000C943E000C943E0054
S11300300C943E000C943E000C943E000C943E0044
S11300400C943E000C943E000C943E000C943E0034
S11300500C943E000C943E000C943E000C943E0024
S11300600C943E000C943E0011241FBECFEFD4E04C
S1130070DEBFCDBF0E945F000C9466000C940000AC
S113008087E690E09093C5008093C400E1ECF0E033
S11300908081886080838081806180830895E0EC22
S11300A0F0E0908195FFFDCF8093C6000895E0ECC9
S11300B0F0E080818823ECF78091C60008950E94C7
S11300C040000E9457000E944F00FBCFF894FFCFDE
S9030000FC
