S017000030335F736C6F7765725F74696D65722E737265632F
S11300000C9434000C943E000C943E000C943E007E
S11300100C943E000C943E000C943E000C943E0064
S11300200C943E000C943E000C943E000C943E0054
S11300300C943E000C943E000C943E000C943E0044
S11300400C943E000C943E000C943E000C943E0034
S11300500C943E000C943E000C943E000C943E0024
S11300600C943E000C943E0011241FBECFEFD4E04C
S1130070DEBFCDBF0E9445000C945B000C940000D1
S113008085E085BD8FE284B90895CF93DF931F92F5
S1130090CDB7DEB719820E94400091E02FE2A89B01
S11300A004C089818F5F898395BB89818E31B9F7BB
S10D00B023B91982F4CFF894FFCFAE
S9030000FC
